:020000040800F2
:1000000028080020D90000080D300008392D00080C
:1000100000000000000000000000000000000000E0
:10002000000000000000000000000000CD340008C7
:100030000000000000000000F9310008CF34000883
:100040000901000809010008090100080901000868
:100050000901000809010008090100080901000858
:10006000090100080901000889070008A107000824
:100070000901000809010008090100080901000838
:10008000090100080000000000000000090100084C
:10009000000000000901000809010008090100082A
:1000A000000000000901000809010008C13F000824
:1000B000090100080000000009010008090100080A
:1000C0000448854600F016FB0048004795440008A8
:1000D000C046C046280800200C4880F308880C4819
:1000E0000168090E0B4A914205D10B480B4901608A
:1000F0000B480C4901600C4880470C480047FEE75C
:10010000FEE7FEE7FEE7FEE7FEE700002808002026
:10011000040000001F000000181002400100000051
:1001200000000140000000004B350008C10000083D
:1001300030B50B46014600202022012409E00D467F
:10014000D5409D4205D31D469540491B2546954007
:1001500040191546521E002DF1DC30BDF0B51FB41C
:100160000646002082B005464024019100901BE025
:10017000019922460F46304600F020F8049A059B6C
:10018000801A994110D310461946224600F0B0F962
:10019000361A8F410197224601200021009F00F06E
:1001A000A7F938184D4100902046641E0028DFDC76
:1001B000019B00982946324607B0F0BD10B5202AB1
:1001C00004DB0846203AD040002110BD0B46D34046
:1001D000D0402024A21A91400843194610BD03467E
:1001E0000B439B0703D009E008C9121F08C0042A6B
:1001F000FAD203E00B780370401C491C521EF9D25E
:100200007047D2B201E00270401C491EFBD2704719
:100210000022F6E710B513460A4604461946FFF7D2
:10022000F0FF204610BDF8B502464A40D40F420008
:100230004B0052085B089A4202D202460846114619
:100240004A0023D0C30D4A00DDB2120EAD1A202D94
:1002500035DA49020126490AF6058A19002C00D030
:10026000524220214F1B1146B9402A411018C20D9D
:100270009A4221D0002C17D0012D08DCDA05801A13
:10028000D20F8019D207DBB200F04AF9F8BDDA05C7
:10029000801A012340001B06C01880185A4280189B
:1002A000CA0F1043490007E04908C2071143DA05A5
:1002B000801A80194008801800F02AF9F8BD610002
:1002C0000122511A001BF7E70122D2075140AAE789
:1002D0000122D2075040A6E7024670B54A40D30F2C
:1002E000DB0740002DD04A002AD0010E140E000278
:1002F00012020919400A520A8418E50104465443BF
:10030000000A120A2E045043A4194219200CC543B6
:10031000AA18120C0125AD03521C521912047F3980
:10032000240400D0521C104301D44000491EC2B224
:100330000C06C0092018401C4008802A02D003E0A7
:10034000002070BD40084000002900DA002018435A
:1003500070BD70B502464A40D50F40004A00ED0717
:1003600040085208002814D0002A12D0C40DD30D22
:1003700041020120C0055202490A520AE41A091832
:1003800012187D34914201D3641C00E04900002C16
:1003900001DA002070BD0023914201D3891A034382
:1003A000400849000028F7D100290AD0914202D123
:1003B0000121C90705E0914201D2012101E001219B
:1003C000C943E005C018401900F0A2F870BDC2177B
:1003D000C10F504010B54018CA079623002100F005
:1003E0009FF810BDC20F410040020123400ADB0507
:1003F000D207090EC0187F2901DA0020704796291C
:1004000003DC9623591AC84001E096398840002A37
:10041000F4D040427047C20FD207400040080BD0D2
:10042000C10D0723DB01C91840020905400A114329
:10043000C208400711437047002001467047000082
:1004400010B5002904DB0124E40740428C41214619
:10045000002B04DB1C460123DB075242A3418B42E5
:1004600000D1824210BD000010B5002904DB012438
:10047000E40740428C412146002B04DB1C4601234B
:10048000DB075242A341994200D1904210BD0000C7
:10049000CB0FDB07490010B5490802460A4307D0D5
:1004A0000A0D07240903E401090B121B002A01DCD1
:1004B000002010BDC900440F0C43C100E018D20554
:1004C000801800F025F810BD0122D207002800DBBB
:1004D000101A002900DB511A814270470122D2070D
:1004E000002800DB101A002900DB511A88427047EF
:1004F00010B5202A04DB0146203A9140002010BDAF
:10050000914020239C1A0346E3401943904010BDBC
:10051000002904DA401C490001D14008400070471E
:1005200070B40024050C05D11024000402D1002968
:1005300021D01124050E01D100020834050F01D18C
:100540000001241D850F01D18000A41C002801DBBF
:100550004000641C002908D020252E1B0D46F540C4
:10056000A14000D001212943084301061B1B000ABA
:10057000DB1D02D5002070BC7047DB051818801801
:100580000029F8DA401C4900F5D170BC4008400051
:10059000704710B5002B08DA0024401C6141921806
:1005A0005B411A4301D14008400010BDF0B51FB4B3
:1005B00082B005460C0003D0084603F009FD02E0B6
:1005C00003F006FD20300246009021462846FFF742
:1005D0008FFF049B059A04460F46184311430843B6
:1005E00014D0184610431BD0009840210A1A184610
:1005F0000599FFF7E3FD05460E46009A0599049814
:10060000FFF776FF084305D0012004E02046394675
:1006100007B0F0BD0020C11705430E432C433743FC
:1006200000990E986305401A7905E40A00220C43EC
:10063000FD0A0A3002D500200146E9E7010510193C
:1006400069410C9C0D9D00196941FFF7A2FFDFE78E
:10065000FEB500231A461B1A8A4103DB002001461F
:1006600003B0F0BD4A000D0301212D0B0905520D09
:100670000D43D10702D100186D41521E5110FF31B8
:10068000FF310131002704463E463846009701916C
:100690000246012100200905FFF790FDC3197141B1
:1006A000F818324684468E464A4161462846611A09
:1006B000904104D36046241A954176461F4624197A
:1006C00000986D41401C00903428E1DDF919304656
:1006D0007041091BA84103D20022D243134601E016
:1006E0000022134601980105381C7141FFF751FFA4
:1006F000B6E70000064C0125064E05E0E36807CC8E
:100700002B430C3C98471034B442F7D3FFF7DCFC82
:10071000FC4800081C49000830B58C180278401CC1
:1007200013071B0F01D10378401C120906D1027870
:10073000401C03E005780D70401C491C5B1EF9D17C
:1007400001E00B70491C521EFBD1A142E6D30020F0
:1007500030BD000070B505460C460026002D01D0C6
:10076000022C00D870BDA11E06480288284600F061
:1007700045F80646A01E2E543012611E685400BF74
:10078000F0E700002600002010B5034800F0A7F8AD
:10079000024800F0A4F810BD10020020540200200E
:1007A00010B5024800F09BF810BD0000E4030020E3
:1007B00010B50446054A2168881A1421FFF7B8FCD1
:1007C0008000206401480838E06310BD0800024042
:1007D00030B50124056CAC40C56B6C600468636087
:1007E0004468102C04D10468A2600468E16003E04E
:1007F0000468A1600468E26030BD704770B50346CC
:10080000002B01D1094870BD0AE01C785B1C101256
:10081000154665402D06ED0D054E755B6840024698
:100820000846491E0028F0D11046ECE7FFFF000003
:10083000C045000801462120405C022808D0042061
:10084000886300BF00222020425400BF012070476F
:10085000086800680E2290430A6810600868006803
:10086000400840000A68106001200A6C9040CA6B82
:10087000506001222120425400BF00222020425417
:1008800000BF0020E3E770B5044600252120005D8D
:10089000022803D00420A06301251EE02068006820
:1008A0000E218843216808602068006840084000E5
:1008B000216808600120216C8840E16B48600121BB
:1008C0002120015500BF00212020015500BF606B91
:1008D000002802D02046616B8847284670BD70B55D
:1008E0000446E06B0568206806680420216C884097
:1008F000284000281BD004203040002817D0206852
:10090000006820210840002805D1206800680421E3
:100910008843216808600420216C8840E16B4860AE
:10092000E06A002852D02046E16A88474EE0022063
:10093000216C88402840002823D002203040002825
:100940001FD02068006820210840002808D12068B6
:1009500000680A218843216808600121212001558F
:100960000220216C8840E16B486000BF00212020FC
:10097000015500BFA06A002828D02046A16A8847F8
:1009800024E00820216C8840284000281ED0082040
:10099000304000281AD0206800680E218843216862
:1009A00008600120216C8840E16B48600120A06351
:1009B00001212120015500BF00212020015500BF49
:1009C000206B002802D02046216B884770BD0000B4
:1009D00070B504460025002C01D1012070BD022114
:1009E00021200155206805680F480540A16860680E
:1009F0000843E16808432169084361690843A16924
:100A00000843E16908430543206805602046FFF775
:100A1000CFFE0020A06301212120015500212020CC
:100A200001550020DAE700000FC0FFFFF8B50446CB
:100A30000D4616461F460020009000BF2020005D96
:100A4000012801D10220F8BD01212020015500BF5D
:100A50002120005D01282DD10221212001550020F7
:100A6000A0632068006840084000216808603B4699
:100A7000324629462046FFF7ABFEE06A002806D042
:100A8000206800680E210843216808600BE0206898
:100A900000680A2108432168086020680068042172
:100AA00088432168086020680068012108432168A4
:100AB000086006E000BF00212020015500BF022091
:100AC00000900098BFE7000070B5044600F008F9F8
:100AD00006462546681C002802D0054800782D18D7
:100AE00000BF00F0FDF8801BA842FAD370BD0000E3
:100AF0005001002078B503460A460021DAE00126BD
:100B00008E4014683440002C7ED01579AD07AD0FAF
:100B1000012D04D01579AD07AD0F022D18D19868BD
:100B20004E000325B5400646AE4330464E00D5681C
:100B3000B54028439860586801258D400646AE436D
:100B400030461026556835402D098D4028435860A1
:100B50001579AD07AD0F032D0BD0D8684E000325D6
:100B6000B5400646AE4330464E009568B540284332
:100B7000D8601579AD07AD0F022D15D1CD08AE00A7
:100B80001D462035A8594D07EE0E0F25B5400646E7
:100B9000AE4330464E07F60E1569B5402843CD08E2
:100BA000AD001E462036705118684E000325B54032
:100BB0000646AE4330461579AD07AD0F4E00B54041
:100BC000284318600326360455683540002D70D040
:100BD00000BF3B4DAD6901263543394EB561354601
:100BE000AD69ED07ED0F009500BF00BF354D8E08D4
:100BF000B600A8598D072E0F0F25B5400646AE4307
:100C000030460925ED0600E053E0AB4201D1002556
:100C10000AE02D4DAB4201D1012505E02B4DAB4241
:100C200001D1022500E005258E07360FB540284387
:100C3000244D8E08B600A851254DA8680546A54349
:100C400028460126360555683540002D02D0054658
:100C5000254328461E4DA860E8680546A54328465A
:100C60000126760555683540002D02D005462543FE
:100C70002846174DE86068680546A54328460126C2
:100C8000760455683540002D02D005462543284698
:100C90000F4D686028680546A5432846012636049E
:100CA00055683540002D02D0054625432846084D9D
:100CB0002860491C1568CD40002D00D01FE778BD85
:100CC00000100240080001400004004800080048ED
:100CD00000040140002A01D0816100E08162704778
:100CE0000148006870470000480100200348006880
:100CF00003490978401801490860704748010020FD
:100D00005001002010B5064800681021084304492E
:100D10000860002000F006F800F02EF8002010BD5A
:100D20000020024070B50446104801787D20C000C4
:100D3000FFF7FEF9064631460D480068FFF7F8F95F
:100D4000054601F025FA002801D0012070BD042CD1
:100D500007D200222146501E00F03CF805480460EE
:100D600001E00120F2E70020F0E700005001002040
:100D7000540100204C01002008B500BF0D488069D7
:100D8000012108430B49886108468069C007C00FEC
:100D9000009000BF00BF00BF0846C06909040843B7
:100DA0000449C8610846C06909040840009000BFB2
:100DB00000BF08BD001002400146002905DBCB063C
:100DC000DB0E01229A40024B1A6000BF7047000000
:100DD00000E100E070B504460D461646294620465F
:100DE00003F026F970BD0000F8B504460026002582
:100DF000012109042068084088427AD10027594817
:100E0000C0690903084000280DD100BF5548C069DA
:100E100008435449C8610846C06909040840009065
:100E200000BF00BF012750480068FF210131084082
:100E3000002816D14C48006808434B490860FFF76A
:100E40004FFF064606E0FFF74BFF801B642801D9E1
:100E50000320F8BD44480068FF2101310840002804
:100E6000F1D04048006A0321090208400546002DE0
:100E70002DD060680840A84229D03A48006A8843CB
:100E800005463848006A01210904084335490862CB
:100E90000846006A0121090488433249086208466D
:100EA0000562E807C00F002811D0FFF719FF0646BA
:100EB00007E0FFF715FF801B2C49884201D903206A
:100EC000C7E72848006A022108400028F1D02548D9
:100ED000006A0321090288436168084321490862C6
:100EE000012F05D10846C069090488431D49C8611E
:100EF00000BF2078C007C00F002807D01948006B3A
:100F000080088000A16808431649086320212068F2
:100F10000840202807D11348006B10218843E1685E
:100F200008431049086301214904206808408842A9
:100F300007D10C48006B8021884361690843094947
:100F400008630121890220680840884207D10548CA
:100F5000006B40218843216908430249086300204F
:100F600077E7000000100240007000408813000086
:100F700070B504460D46002C01D1012070BD5848C3
:100F80000068C007C00FA8420ED25548006840084C
:100F9000400028435249086008460068C007C00F57
:100FA000A84201D00120E9E7022120680840022878
:100FB00014D1042120680840042807D1494840681A
:100FC000072109028843401846494860454840685F
:100FD000F0218843A1680843424948602078C0074F
:100FE000C00F002847D06068012808D13D4800683C
:100FF000012149040840002821D10120BEE7606892
:10100000022808D137480068012149060840002815
:1010100015D10120B2E76068032808D13148406B40
:10102000012149040840002809D10120A6E72D48E4
:10103000006802210840002801D101209EE72948CC
:101040004068800880006168084326494860FFF7CF
:1010500047FE064607E0FFF743FE801B2249884211
:1010600001D903208AE71F4840680C2108406168C5
:1010700089008842EFD11A480068C007C00FA84213
:101080000ED91748006840084000284314490860FA
:1010900008460068C007C00FA84201D001206DE7D4
:1010A000042120680840042808D10E484068072120
:1010B00009028843E16808430A49486000F032F8B1
:1010C00008494968F02211400909084A515CC840A2
:1010D000074908600020FFF725FE00204EE70000CA
:1010E000002002400010024088130000E148000880
:1010F000540100200148006870470000540100209E
:1011000000B5FFF7F7FF05494968072212021140B1
:10111000090A034A515CC84000BD000000100240AB
:10112000F1480008F8B5002500240027002600201B
:1011300000902B4845680C202840002849D00428FE
:1011400004D0082805D00C2842D13EE02548009064
:1011500042E00F2080042840800C23490E5C204888
:10116000C06A0007000F21490C5C0320C00328401F
:101170000121090488420AD1224600231948194650
:10118000FEF7ECFF314602F03AFF07461BE0032072
:10119000C00328400321C90388420AD12246002304
:1011A00013481946FEF7DAFF314602F028FF0746DA
:1011B00009E0224600230B481946FEF7CFFF3146CF
:1011C00002F01DFF0746009706E00948009003E083
:1011D00000BF0448009000BF00BF0098F8BD0000A9
:1011E0000010024000127A00C1480008D1480008EF
:1011F000006CDC02FEB50446002C01D10120FEBDCE
:101200002078C007C00F002872D0FC4840680C212D
:10121000084004280CD0F94840680840082813D139
:10122000F6484068490308400121090488420BD16F
:10123000F248006801214904084000286BD060682A
:10124000002868D10120DAE700BF6068012807D1D3
:10125000EA480068012109040843E849086031E0D0
:10126000606800280ED1E548006801210904884320
:10127000E249086008460068012189048843DF4983
:1012800008601FE0606805280ED1DC480068012175
:1012900089040843D9490860084600680121090407
:1012A0000843D64908600DE0D448006801210904CC
:1012B0008843D249086008460068012189048843B0
:1012C000CE49086000BF6068002812D0FFF708FD13
:1012D000054606E0FFF704FD401B642801D9032002
:1012E0008DE7C64800680121490408400028F1D074
:1012F00011E0FFF7F5FC054606E0FFF7F1FC401BA7
:10130000642801D903207AE7BC4800680121490418
:1013100008400028F1D1022120680840022862D14B
:10132000B64840680C21084000280CD0B3484068FB
:10133000084008281CD1B1484068490308400121F1
:10134000C903884214D1AD48006802210840002832
:1013500004D0E068012801D0012050E7A7480068C8
:10136000F82188432169C9000843A44908603AE08C
:10137000E068002820D0A1480068012108439F4967
:101380000860FFF7ADFC054606E0FFF7A9FC401B2F
:10139000022801D9032032E798480068022108405A
:1013A0000028F2D095480068F82188432169C900D7
:1013B00008439249086016E09048006840084000E1
:1013C0008E490860FFF78CFC054606E0FFF788FCB5
:1013D000401B022801D9032011E788480068022138
:1013E00008400028F2D1082120680840082831D19F
:1013F000E069002817D08148406A012108437F49ED
:101400004862FFF76DFC054606E0FFF769FC401BEC
:10141000022801D90320F2E67848406A02210840F8
:101420000028F2D016E07548406A40084000734931
:101430004862FFF755FC054606E0FFF751FC401BEC
:10144000022801D90320DAE66C48406A02210840EC
:101450000028F2D1042120680840042872D100201D
:1014600001906648C0698906084000280ED100BF77
:101470006248C06908436149C8610846C0690904F7
:101480000840009000BF00BF012001905C48006848
:10149000FF2101310840002816D15948006808434F
:1014A00057490860FFF71CFC054606E0FFF718FCEB
:1014B000401B642801D90320A1E651480068FF21A0
:1014C000013108400028F1D000BFA068012806D1F2
:1014D0004A48006A01210843484908622AE0A06896
:1014E00000280BD14548006A410849004348016281
:1014F000006A04218843414908621BE0A06805286E
:101500000CD13E48006A042108433C490862084661
:10151000006A01210843394908620BE03748006A34
:1015200040084000354908620846006A04218843A3
:101530003249086200BFA068002813D0FFF7D0FB33
:10154000054608E02BE0FFF7CBFB401B2D49884206
:1015500001D9032053E62948006A022108400028E7
:10156000F1D011E0FFF7BCFB054607E0FFF7B8FB41
:10157000411B2448814201D9032040E61F48006AEC
:10158000022108400028F1D10198012806D11B480A
:10159000C0690121090788431849C86100BF1021AB
:1015A0002068084010285FD1606901282CD11348B9
:1015B000406B04210843114948630846406B0121F0
:1015C00008430E494863FFF78BFB054606E0FFF72B
:1015D00087FB401B022801D9032010E60748406B17
:1015E000022108400028F2D00448406BF8218843CB
:1015F000A169C90008430149486335E00010024071
:1016000000700040881300006069401D00280FD161
:101610008648406B04218843844948630846406BF0
:10162000F8218843A169C9000843804948631BE049
:101630007E48406B042108437C4948630846406B60
:10164000400840004863FFF74BFB054606E0FFF704
:1016500047FB401B022801D90320D0E57348406BAB
:10166000022108400028F2D12021206808402028CB
:1016700052D16E4840680C2108400C280AD06B48B3
:1016800040680840082811D168484068490308406C
:1016900088420BD16548406B01214904084000286D
:1016A0003AD0206A012837D00120A8E5206A002816
:1016B00019D05E48406B0121090408435B49486327
:1016C000FFF70EFB054606E0FFF70AFB401B02286A
:1016D00001D9032093E55548406B01214904084096
:1016E0000028F1D018E05148406B012109048843DB
:1016F0004E494863FFF7F4FA054606E0FFF7F0FAB3
:10170000401B022801D9032079E54848406B01219C
:10171000490408400028F1D1606A00284FD04348AE
:1017200040680C210840082864D0606A022847D12C
:101730003E4800680121090688433C490860FFF7DC
:10174000CFFA054606E0FFF7CBFA401B022801D985
:10175000032054E535480068012149060840002867
:10176000F1D100BF3148C06A00090001216B084374
:101770002E49C862A16AE06A08432C4949687B2265
:10178000D203914308432949486000BF08460068D6
:1017900001210906084325490860FFF7A1FA05461B
:1017A00006E0FFF79DFA401B022801D9032026E539
:1017B0001E4800680121490608400028F1D033E0A6
:1017C0001A48006801210906884318490860FFF794
:1017D00087FA054606E0FFF783FA401B022801D985
:1017E00003200CE511480068012149060840002843
:1017F000F1D119E0606A012800D100E50B48466884
:10180000C76A0320C0033040A16A88420AD1390761
:10181000090F206B814205D10F2080043040E16A1E
:10182000884201D00120EAE40020E8E400100240F0
:1018300070B50446002C01D1012070BD606A0028FB
:1018400008D1FF2105316068884200D105E0002100
:10185000E16102E00021216161610021A1625D205E
:10186000005D002804D15C200155204600F066F898
:1018700002215D20015520680068402188432168CD
:10188000086007210902E068884201D9002501E0CB
:1018900001252D030F210902E068884206D00721A7
:1018A0000902E068884201D00021A162FF210531D0
:1018B0006068084021229202A16811400843022278
:1018C000216911400843217DC907C90F084312024D
:1018D000A169114008433822E16911400843802280
:1018E000216A114008439201A16A1140084321680E
:1018F0000860A069000C042108401022616A1140B0
:1019000008430822616B114008430F221202E1686C
:101910001140084301210903294008432168486018
:101920002068C0690121C90288432168C86100207C
:10193000206601215D20015500207EE710B586B0AC
:101940000446142101A8FEF763FC3449206888424C
:1019500062D100BF324880698914084330498861E8
:101960000846806989140840009000BF00BF00BF8E
:101970002B484069490108432949486108464069A4
:10198000012149040840009000BF00BFE020019001
:101990000220029000200390032004900020059074
:1019A00001A90920C006FFF7A5F81E481E490860D6
:1019B0000020486000211C4881608021C160002116
:1019C00001614161202181610902C161FFF700F8D5
:1019D000002801D0FEF711FF00BF1348A065446244
:1019E00000BF1048143011490860102048600021E1
:1019F0000E4881608021C1600021016141618161E7
:101A0000C161FEF7E5FF002801D0FEF7F6FE00BF3A
:101A100006486065446200BF06B010BD003001405A
:101A2000001002401C00024010020020540200205E
:101A3000FFB583B0044616461D46002002905D2087
:101A4000005D012802D002200290D6E0FF2105317E
:101A5000606888420ED1A06800280BD104215D2067
:101A6000015533460095049A1146204600F0B9F915
:101A700007B0F0BD00BF5C20005D012801D102204D
:101A8000F6E701215C20015500BFFFF729F9074661
:101A90000498002801D0002E02D101200290ACE071
:101AA00004215D2001550020206604982064442014
:101AB0000653462006530020A063A087E087E06419
:101AC000206507210902E068884207D9206840683C
:101AD0000121090388432168486006E020684068C6
:101AE000012109030843216848600121C903A06856
:101AF00088420CD120680068402188432168086032
:101B000020680068012189038843216808602068F3
:101B1000006840210840402804D02068006808433D
:101B20002168086007210902E068884229D823E07B
:101B300020688068C007C00F00280DD02068007B97
:101B4000216C0870206C401C20644620005B401E05
:101B500081B2462001530FE0FFF7C2F8C01BA84234
:101B600002D3681C002801D1002D05D1032002906A
:101B700001215D20015540E04620005B0028D7D1BF
:101B800028E023E020688068C007C00F00280DD03F
:101B90002068C068216C0880206C801C206446206E
:101BA000005B401E81B2462001530FE0FFF798F81A
:101BB000C01BA84202D3681C002801D1002D05D10A
:101BC0000320029001215D20015516E04620005BB4
:101BD0000028D7D13A462946204601F00EFB0028BE
:101BE00001D020202066206E002802D00120029023
:101BF00002E001215D20015500BF00BF00215C20F3
:101C0000015500BF029833E7FFB583B0044616467E
:101C10001D460020029000BF5C20005D012802D11B
:101C2000022007B0F0BD01215C20015500BFFFF785
:101C300057F8074601965D20005D012802D002207A
:101C40000290C7E00498002801D0002E02D10120A4
:101C50000290BFE003215D2001550020206604981A
:101C6000A063A687E687002020640021442001535A
:101C70004620015300202065E0640121C903A068CB
:101C800088420CD1206800684021884321680860A0
:101C900020680068012189030843216808602068E2
:101CA000006840210840402804D0206800680843AC
:101CB0002168086007210902E068884235D9606818
:101CC000002802D00198012809D1A06B0088216862
:101CD000C860A06B801CA063E08F401EE08720E0FE
:101CE000206880680221084002280AD1A06B008881
:101CF0002168C860A06B801CA063E08F401EE08755
:101D00000FE0FEF7EDFFC01BA84202D3681C0028BD
:101D100001D1002D05D10320029001215D20015544
:101D200058E0E08F0028DBD134E06068002802D062
:101D30000198012809D1A06B007821680873A06B75
:101D4000401CA063E08F401EE08720E02068806890
:101D50000221084002280AD1A06B0078216808738C
:101D6000A06B401CA063E08F401EE0870FE0FEF7F1
:101D7000B7FFC01BA84202D3681C002801D1002D68
:101D800005D10320029001215D20015522E0E08F62
:101D90000028DBD13A462946204601F075FA002892
:101DA00001D020202066A068002809D100BF009043
:101DB0002068C068009020688068009000BF00BF65
:101DC000206E002802D00120029002E001215D2057
:101DD000015500BF00BF00215C20015500BF0298E3
:101DE0001FE7FFB585B004461D460E9E01200190F9
:101DF0000020009000BF5C20005D012802D102207D
:101E000009B0F0BD01215C20015500BFFEF768FF5D
:101E100007465D20005D029060680390049502987B
:101E200001280DD0FF2105310398884205D1A06813
:101E3000002802D10298042802D0022000900AE172
:101E40000698002804D00798002801D0002D02D160
:101E500001200090FFE05D20005D042802D00521F4
:101E60005D20015500202066079820644620055318
:101E7000442005530698A063E587A5870020E06409
:101E8000206507210902E068884207D92068406878
:101E90000121090388432168486006E02068406802
:101EA0000121090308432168486020680068402137
:101EB0000840402804D02068006808432168086072
:101EC00007210902E068884257D96068002802D0DB
:101ED0000498012809D1A06B00882168C860A06B14
:101EE000801CA063E08F401EE0873EE02068806891
:101EF00002210840022811D1E08F00280ED001985D
:101F000001280BD1A06B00882168C860A06B801CE1
:101F1000A063E08F401EE087002001902068806869
:101F2000C007C00F002812D04620005B00280ED04A
:101F30002068C068216C0880206C801C20644620CA
:101F4000005B401E81B24620015301200190FEF744
:101F5000C7FEC01BB04208D3701C002805D0032068
:101F6000009001215D20015575E0E08F0028BDD172
:101F70004620005B0028B9D158E06068002802D0F4
:101F80000498012809D1A06B007821680873A06B20
:101F9000401CA063E08F401EE08740E0206880681E
:101FA00002210840022811D1E08F00280ED00198AC
:101FB00001280BD1A06B007821680873A06B401C2E
:101FC000A063E08F401EE0870020019020688068B9
:101FD000C007C00F002812D04620005B00280ED09A
:101FE0002068007B216C0870206C401C2064462017
:101FF000005B401E81B24620015301200190FEF794
:102000006FFEC01BB04202D3701C002801D1002E0D
:1020100005D10320009001215D2001551BE0E08FD8
:102020000028BBD14620005B0028B7D13A46314694
:10203000204601F029F9002803D00120009020203B
:102040002066206E002802D00120009002E00121CD
:102050005D20015500BF00BF00215C20015500BF7D
:102060000098CDE6F0B585B03E480078012876D1DD
:102070003D480068401C3C4908603C480068401CE2
:102080003A49086008460068FF21F531884204DDBE
:10209000002202213648FEF71DFE344800687D21EB
:1020A000C900884207DD012202213148FEF712FEF5
:1020B00000202E4908602F4802F038F82E4802F020
:1020C0000FF8002423E061002A4A505EFEF77FF9F2
:1020D00006467F21C905FEF7FFF805462749FEF7AA
:1020E00038F9A100264A50506100234A505EFEF79D
:1020F0006EF9064623214906FEF72BF905462149CC
:10210000FEF7EAF8A100204A5050601CC4B2032C2C
:10211000D9DB1D4A91689068FEF7DEF81A4A0390F1
:1021200051685068FEF7D8F8174A01901168106896
:10213000FEF7D2F800900199FEF775F80290039926
:10214000FEF771F80490FEF766F9044602F0ECF928
:102150000646FEF79DF90D49086002F009FA05B040
:10216000F0BD0000440000203C010020440100209C
:1021700000040048240100202A0100206811834146
:1021800028030020CDCC1C41400300207800002013
:1021900070B504462546681E0949884201D90120C8
:1021A0000CE0681E074948610321081F01F040FF49
:1021B00000200449886107200861002070BD0000EC
:1021C000FFFFFF0000E000E030B502460B4600BF15
:1021D0003C20805C012801D1022030BD01253C203B
:1021E000855400BF02253D2085541068446810685E
:1021F000816870252046A843044618680443106887
:1022000044600F4D1068A84208D00125AD07106842
:10221000A84203D00B4D1068A84207D1802508467C
:10222000A8430146586801431068816001253D209C
:10223000855400BF00253C20855400BF0020CCE71A
:10224000002C01400004004010B50446002C01D1D0
:10225000012010BD3D20005D002805D100213C205B
:102260000155204600F022F802213D200155211D94
:10227000206801F06BF901214620015500BF3E2086
:1022800001553F200155402001554120015500BF17
:1022900000BF4220015543200155442001554520EF
:1022A000015500BF3D2001550020D2E708B50122AD
:1022B0009207016891420DD100BF1049C9690122FE
:1022C00011430E4AD1611146C969C907C90F00916E
:1022D00000BF11E00A4A016891420DD100BF0749D1
:1022E000C96902221143054AD1611146C969022216
:1022F0001140009100BF00BF08BD00000010024067
:102300000004004001463D20405C012801D001202E
:10231000704702233D204354104B0868984208D070
:1023200001239B070868984203D00D4B0868984228
:102330000CD1086880684207520F062A0CD0086842
:102340000068012318430B68186005E008680068FE
:10235000012318430B6818600020D9E7002C0140C6
:1023600000040040F8B504460D460020009000BF70
:102370003C20005D012801D10220F8BD01213C2054
:10238000015500BF02213D20015520688668772154
:10239000304688430646FF210902304688430646F8
:1023A000206886602868502834D00CDC202851D062
:1023B00004DC00284CD0102852D14AE030284AD002
:1023C00040284DD13AE060282ED0702807D0012156
:1023D0000903401A02D0401A42D10DE043E0EB68F5
:1023E0006A68A968206801F012F920688668772079
:1023F00006432068866036E0EB686A68A968206852
:1024000001F005F9206880680121890308432168EB
:10241000886028E0EA686968206801F04BFA50217A
:10242000206801F002F91EE0EA686968206801F09E
:102430005AFA6021206801F0F8F814E0EA68696847
:10244000206801F037FA4021206801F0EEF80AE038
:1024500000BF00BF00BF2968206801F0E6F802E075
:102460000120009000BF00BF01213D20015500BFA9
:1024700000213C20015500BF00987EE710B586B0D2
:102480000446142101A8FDF7C3FE01218907206835
:1024900088421CD100BF0F484069491308430D49C9
:1024A000486108464069012149040840009000BF86
:1024B00000BF0420019002200290002003900490AD
:1024C0000220059001A90920C006FEF713FB06B003
:1024D00010BD000000100240F8B504460D46164637
:1024E000002700BF3C20005D012801D10220F8BD7B
:1024F00001213C20015500BF002E06D0042E1BD028
:10250000082E33D00C2E62D147E02946206801F016
:1025100099F820688069082108432168886120684B
:10252000806904218843216888612068806929695D
:102530000843216888614CE02946206801F0D0F802
:10254000206880690121C9020843216888612068E8
:102550008069012189028843216888612068806937
:102560002969090208432168886132E02946206808
:1025700001F00EF92068C069082108432168C8618C
:102580002068C069042188432168C8612068C06947
:10259000296908432168C8611BE02946206801F0C9
:1025A0004DF92068C0690121C90208432168C8614A
:1025B0002068C0690121890288432168C8612068B8
:1025C000C0692969090208432168C86101E001273F
:1025D00000BF00BF00BF00213C20015500BF3846AE
:1025E00085E710B50446002C01D1012010BD3D2027
:1025F000005D002805D100213C200155204600F057
:1026000022F802213D200155211D206800F09EFF87
:1026100001214620015500BF3E2001553F200155B4
:10262000402001554120015500BF00BF4220015507
:1026300043200155442001554520015500BF3D2050
:1026400001550020D2E7704770B504460D46002DB5
:1026500002D13E20005D0BE0042D02D13F20005D41
:1026600006E0082D02D14020005D01E04120005D20
:10267000012801D0012070BD002D03D102213E2090
:1026800001550EE0042D03D102213F20015508E041
:10269000082D03D102214020015502E002214120F2
:1026A000015501222946206800F0A0FF1C4920683E
:1026B000884207D01B492068884203D01A49206805
:1026C000884201D1012000E00020002806D02068C7
:1026D000406C0121C90308432168486410492068FF
:1026E000884208D0012189072068884203D00F4919
:1026F000206888420CD1206880684607760F062E35
:102700000CD020680068012108432168086005E0BA
:102710002068006801210843216808600020AAE7BA
:10272000002C0140004401400048014000040040EA
:102730007047704770470000F0B585B004462068C8
:10274000C5692068066820688768EC4828400390BF
:10275000039800280FD12020284000280BD02020EB
:102760003040002807D0A06E002802D02046A16E7D
:10277000884705B0F0BD039800287DD0F807C00F4A
:10278000002803D1DE4830400028F6D0E807C00F0B
:1027900000280DD0FF2001303040002808D0012053
:1027A00021680862842000590121084384210851CE
:1027B0000220284000280CD0F807C00F002808D0BD
:1027C00002202168086284200059042108438421E2
:1027D00008510420284000280CD0F807C00F00281A
:1027E00008D004202168086284200059022108438F
:1027F0008421085108202840002810D02020304093
:10280000002803D1F807C00F002808D0082021684D
:1028100008628420005908210843842108510120BE
:10282000C002284000280ED0012080063040002839
:1028300009D00120C00221680862842000592021AB
:1028400008438421085184200059002854D02020B6
:102850002840002809D020203040002805D0A06E54
:10286000002802D02046A16E88478420005902909B
:1028700020688068402100E03FE00840402804D004
:10288000282102980840002830D0204601F000FAA4
:102890002068806840210840402823D100BF01F013
:1028A00003FC0190012001F011FC206880684021A8
:1028B000884321688860019801F008FC00BF606FC0
:1028C00000280BD08F48616F4863606FFDF7DBFF16
:1028D000002811D0606F416B88470DE02046FFF75C
:1028E00029FF09E02046FFF725FF05E02046FFF716
:1028F00021FF0021842001513BE7206E01287DD17A
:1029000010202840002879D0102030400028FAD02C
:102910001020216808622068806840210840402813
:102920006ED1606F0068406880B201900198002805
:1029300063D05820015B019881425EDD5A210198E5
:102940000853606F806920284CD000BF01F0ACFBB9
:102950000090012001F0BAFB20680068FF210131DE
:10296000884321680860009801F0B0FB00BF00BFF9
:1029700001F09AFB0090012001F0A8FB206880681C
:102980004008400021688860009801F09FFB00BF6C
:1029900000BF01F089FB0090012001F097FB206847
:1029A00080684021884321688860009801F08EFB90
:1029B00000BF2021802001510020206600BF01F0CF
:1029C00073FB0090012001F081FB2068006810215A
:1029D000884321680860009801F078FB00BF606FB1
:1029E000FDF728FF022060665820025B5A20005B3A
:1029F000101A81B22046FFF79BFEBAE64FE0FFE7D0
:102A00005820015B5A20005B081A80B201905A20BE
:102A1000005B002842D0019800283FD000BF01F0A1
:102A200043FB0090012001F051FB20680068FF216A
:102A30002131884321680860009801F047FB00BFFE
:102A400000BF01F031FB0090012001F03FFB206846
:102A500080684008400021688860009801F036FBDB
:102A600000BF20218020015100202066A06600BF09
:102A700001F01AFB0090012001F028FB206800689B
:102A80001021884321680860009801F01FFB00BFF7
:102A90000220606620460199FFF74AFE69E60120A0
:102AA0000005284000280CD001208005384000286F
:102AB00007D001200005216808622046FFF739FE93
:102AC00057E68020284000280AD080203040002887
:102AD00006D0E06E002802D02046E16E884748E626
:102AE00040202840002807D040203040002803D054
:102AF000204601F00DF93CE600BF3AE60F08000061
:102B000020010004B53B000810B50446002C01D19B
:102B1000012010BDA069002800D000E000BFE06FD8
:102B2000002805D1002178200155204600F02CF81E
:102B30002420E067206800684008400021680860A1
:102B4000204601F017F9012800D1E2E7606A002869
:102B500002D0204600F036FF206840680921C902F3
:102B6000884321684860206880682A21884321685A
:102B700088602068006801210843216808602046B9
:102B800000F098FFC5E7000010B586B00446142198
:102B900001A8FDF73DFB30492068884259D100BFAC
:102BA0002E4880690121890308432C498861084621
:102BB0008069012189030840009000BF00BF00BF69
:102BC00026484069C90008432449486108464069CD
:102BD000012149040840009000BF00BF03204002CB
:102BE0000190022002900120039003200490012014
:102BF000059001A90920C006FDF77CFF1848194976
:102C00000860102048600021164881608021C16062
:102C10000021016141618161C161FDF7D9FE002898
:102C200001D0FDF7EAFD00BF0F480068012149020D
:102C300008430D49086000BF00BF0A48206744628E
:102C400000BF002211461B20FEF7C4F81B20FEF730
:102C5000B3F806B010BD000000380140001002407B
:102C600044000240E403002000000140F8B504469F
:102C70000E461546E06F202853D1002E01D0002DBE
:102C800001D10120F8BD01210903A068884208D1C3
:102C90002069002805D1F007C00F002801D00120CD
:102CA000F0E7E664502005535220055300218420AC
:102CB00001512120E067206F00281CD01A48216FA5
:102CC00088621A48216FC8621948216F0863002082
:102CD000216F486323681A4628322B46E16C206F27
:102CE000FDF7A4FE002806D01021842001512020E9
:102CF000E0670120C6E740202168086200BF01F0BC
:102D0000D3F90746012001F0E1F9206880688021AD
:102D1000084321688860384601F0D8F900BF0020D8
:102D2000B0E70220AEE70000253C0008833C000825
:102D3000CD3B00087047704700BFFEE708B500BFF5
:102D40000E484069012108430C4948610846406922
:102D5000C007C00F009000BF00BF002211460A202C
:102D6000FEF738F80A20FEF727F8002211460B205C
:102D7000FEF730F80B20FEF71FF808BD00100240E8
:102D800000B587B0142102A8FDF742FA00BF2F4812
:102D900040690121890508432C494861084640697A
:102DA000012189050840019000BF00BF00BF2748EE
:102DB0004069491108432549486108464069012195
:102DC00049040840019000BF00BF00BF1F48406990
:102DD000490008431D4948610846406901218904AA
:102DE0000840019000BF00BF01221A210920C0063F
:102DF000FDF770FF012202211548FDF76BFF02204D
:102E0000029011200390012004900320059002A954
:102E10000920C006FDF76EFE1820029001200390E5
:102E200004900320059002A90920C006FDF762FE68
:102E3000022002900120039004900320059002A933
:102E40000348FDF757FE07B000BD00000010024028
:102E50000004004810B5124812490860FF200530F0
:102E6000486000210F48816007210902C1600221EA
:102E7000016101214161490281612021C16100217B
:102E80000162416281620721C162002101634163E5
:102E9000FEF7CEFC002801D0FDF7AFFC10BD00000E
:102EA00000300140AC01002000B58DB00020099039
:102EB0000A900B900C90079008901C216846FDF733
:102EC000A7F901208007214908602F2048600021D0
:102ED0001E4881601E49C160002101618161FFF7C8
:102EE000B3F9002801D0FDF788FC01200003099008
:102EF00009A91648FFF736FA002801D0FDF77DFC36
:102F00001248FFF76EFB002801D0FDF776FC002089
:102F10000790089007A90D48FFF756F9002801D03F
:102F2000FDF76BFC6020009000200190029004905F
:102F3000082269460548FFF7CFFA002801D0FDF7BF
:102F40005CFC0248FFF79AFA0DB000BD9802002021
:102F50000F27000000B587B0002003900490059073
:102F60000690019002901548154908602F2048608E
:102F70000021134881601349C16000210161816112
:102F8000FFF762F9002801D0FDF737FC01200003AC
:102F9000039003A90A48FFF7E5F9002801D0FDF7DF
:102FA0002CFC00200190029001A90548FFF70CF9C4
:102FB000002801D0FDF721FC07B000BD000400404F
:102FC000E0020020FFFF000010B50E480E49086027
:102FD000E1200003486000210B488160C16001616D
:102FE0000821416100218161C1610162002006491F
:102FF00048620846FFF788FD002801D0FDF7FDFB79
:1030000010BD0000003801405C0300207047F0B59F
:1030100085B00446E069A06161682068FDF754F955
:10302000E061A068FDF7F7F903910290E069FDF710
:10303000F2F9490049080546039B029AFDF700FA98
:1030400001D20020E061A06CFDF7E5F90391029048
:10305000E069FDF7E0F9490049080546039B029A3B
:10306000FDF7EEF925D2A169E069FDF7DCF8064627
:1030700001218907FDF76DF90546216AFDF7D3F8AF
:1030800020620121C907606A48400546216AFDF7B0
:1030900025FA04D80121C907606A484007E0616A3F
:1030A000206AFDF71BFA01D8606A00E0206A2062FE
:1030B00046E0606CFDF7AFF903910290E069FDF71F
:1030C000AAF9490049080546039B029AFDF7B8F999
:1030D00036D2A16C606CFDF7F7F80390A16CE06943
:1030E000FDF7F2F80190A169E069FDF79CF8012174
:1030F00089070090FDF72DF906460199FDF7ECF8D8
:1031000002900399FDF725F90546216AFDF78BF832
:1031100020620121C907606A48400546216AFDF71F
:10312000DDF904D80121C907606A484007E0616AF7
:10313000206AFDF7D3F901D8606A00E0206A2062B6
:10314000E169E068FDF7C8F8A062216A2069FDF72F
:10315000C3F8E062A169E069FDF7B6F80546616968
:10316000FDF7BAF807467F20C005E16CFDF7ACF823
:103170000390616BFDF7B0F805463846E16CFDF74A
:10318000ABF806462946FDF74EF82063206B6063D6
:10319000E06B20640121C907A06B48400546E16A45
:1031A000A06AFDF740F80390216BFDF73CF8064656
:1031B0002946FDF789F904D80121C907A06B4840C9
:1031C00016E0E16AA06AFDF72EF80646216BFDF7CE
:1031D0002AF80546A16BFDF781F901D8A06B07E03D
:1031E000E16AA06AFDF71FF80546216BFDF71BF8A1
:1031F000E063E06B05B0F0BD7047F8B504460E46DD
:103200001546FF210531606888420ED10121C903AE
:10321000A068884203D04911A068884205D120687F
:1032200000684021884321680860334600228021DD
:103230002046009500F0DCF8002805D0206E202103
:10324000084320660320F8BDFF21053160688842ED
:1032500018D10121C903A068884203D04911A06890
:1032600088420FD1334600220321490220460095AF
:1032700000F040F8002805D0206E20210843206689
:103280000320E0E70020DEE7F8B504460E461546C9
:10329000334600220321C9022046009500F02AF897
:1032A000002805D0206E2021084320660320F8BDA9
:1032B0003346002280212046009500F099F800282E
:1032C00005D0206E2021084320660320EFE7334617
:1032D0000022032149022046009500F00BF8002847
:1032E00005D0206E2021084320660320DFE7002060
:1032F000DDE70000F0B585B004460D4616461F46D2
:1033000000200090FDF7ECFC0A99401A381A03904F
:10331000FDF7E6FC029020680C300190334800680D
:1033200023214843000D03994843049056E00320AD
:103330004002854206D1002E04D101980178009107
:1033400068460078781C002848D0FDF7C9FC02992F
:10335000411A0398814202D20398002837D120688D
:103360004068E021884321684860FF21053160689A
:1033700088420ED10121C903A068884203D04911B7
:10338000A068884205D120680068402188432168F0
:10339000086001214903A06A88420DD100BF20685E
:1033A000006888432168086020680068012149039B
:1033B00008432168086000BF01215D20015500BF5E
:1033C00000215C20015500BF032005B0F0BD04982A
:1033D000002800D103900498401E04902068806863
:1033E0002840B042A3D10020EFE7000054010020A4
:1033F000FFB583B004460D461E46FDF771FC0C99DF
:10340000401A371AFDF76CFC01902F480068400104
:10341000000D7843029049E0701C002846D0FDF76B
:103420005FFC0199401AB84201D2002F37D12068C1
:103430004068E021884321684860FF2105316068C9
:1034400088420ED10121C903A068884203D04911E6
:10345000A068884205D1206800684021884321681F
:10346000086001214903A06A88420DD100BF20688D
:1034700000688843216808602068006801214903CA
:1034800008432168086000BF01215D20015500BF8D
:1034900000215C20015500BF032007B0F0BD029859
:1034A000002800D100270298401E02902068806802
:1034B0002840A84201D1012100E000210598814265
:1034C000AAD10020E9E7000054010020704710B5A0
:1034D000FDF70CFCFEF7C6FD10BD00B597B034211A
:1034E0000AA8FCF795FE0020069007900890099026
:1034F00018216846FCF78CFE20200A9001201290CB
:10350000002013900AA8FDF775FE002801D0FDF7F2
:1035100074F9072006900320079000200890099076
:10352000012106A8FDF724FD002801D0FDF765F96B
:1035300001200090002002906846FDF755FC00280D
:1035400001D0FDF75AF917B000BD704710B50268F9
:10355000214B984206D001239B07984202D01F4B73
:10356000984205D170241346A3431A464B681A4368
:10357000194B98420FD001239B0798420BD0174B51
:10358000984208D0164B984205D0164B984202D06C
:10359000154B984206D1032424021346A3431A462E
:1035A000CB681A4380241346A3434C6923431A462D
:1035B00002608B68C3620B688362074B984205D038
:1035C000084B984202D0084B984201D10B69036323
:1035D0000123436110BD0000002C014000040040A5
:1035E00000200040004401400048014070B5CD0675
:1035F000ED0E0124AC402346046A9C430462046A35
:10360000CE06F60E1546B5402C43046270BD70B56B
:103610000C468168FF2636020D46B54329461D0239
:10362000154325432943816070BD10B50A46816862
:1036300070240B46A34319460723134319438160A3
:1036400010BD000070B5056A6D086D000562026A64
:103650004368846970262546B5432C46A408A40017
:103660000D682C4302261546B5432A468D682A4329
:10367000184DA84200D107E0174DA84200D103E041
:10368000164DA8420AD100BF08261546B5432A4662
:10369000CD682A4304261546B5432A460D4DA84257
:1036A00005D00D4DA84202D00C4DA8420CD1FF26EA
:1036B00001361D46B5432B4676001D46B5432B46C5
:1036C0004D692B438D692B43436084614D6845638D
:1036D000026270BD002C01400044014000480140DE
:1036E00070B5056A1026B5430562026A43688469AD
:1036F000072636032546B5432C46032636022546C3
:10370000B5432C460D682D022C4320261546B543A3
:103710002A468D682D012A431A4DA84200D107E0A0
:10372000194DA84200D100BF184DA8420BD10AE0A4
:1037300080261546B5432A46CD682D012A434026EA
:103740001546B5432A460F4DA84205D00E4DA84256
:1037500002D00E4DA8420ED10126B6021D46B54339
:103760002B4676001D46B5432B464D69AD002B43D5
:103770008D69AD002B43436084614D6885630262AF
:1037800070BD0000002C0140004401400048014091
:1037900070B5056AFF260136B5430562026A4368C3
:1037A000C46970262546B5432C46A408A4000D68BC
:1037B0002C43012676021546B5432A468D682D0214
:1037C0002A431B4DA84200D107E01A4DA84200D160
:1037D00000BF194DA8420CD10BE00126F602154698
:1037E000B5432A46CD682D022A4376101546B543C7
:1037F0002A460F4DA84205D00E4DA84202D00E4DCC
:10380000A8420ED1012636031D46B5432B4676004D
:103810001D46B5432B464D692D012B438D692D0166
:103820002B434360C4614D68C563026270BD0000F4
:10383000002C0140004401400048014070B5056A79
:1038400001263603B5430562046A4368C269072648
:1038500036031546B5432A46032636021546B543B8
:103860002A460D682D022A43012676032546B543D4
:103870002C468D682D032C430B4DA84205D00B4DD3
:10388000A84202D00A4DA84207D10126B6031D4620
:10389000B5432B464D69AD012B434360C2614D6872
:1038A0000564046270BD0000002C0140004401402A
:1038B0000048014070B50B461446026A056A6D085F
:1038C0006D0005628169F0260D46B5432946250144
:1038D00029430A261546B5432A4615461D432A465E
:1038E0008161026270BD70B50B461446056A1026F0
:1038F000B54305628169026A0F2636030D46B5435A
:10390000294625032943A0261546B5432A461D010D
:103910002A438161026270BD10B500F035FC0D498B
:1039200048600846FFF773FB0A49C86B0021FCF7A3
:10393000CBFD02D200200749C8630649C86BFCF7DB
:1039400051FD00B2044908800020085E034909685F
:10395000C86310BD5C0100202400002098020020F4
:1039600010B50F480F4908600F48C8600120800754
:10397000086100204861FF20800588640B48486486
:103980000B48C8640B4848620B4888630B48486082
:103990000B48FEF7B7FC08210948FEF755FE10BD9D
:1039A000000020425C01002000806D450000404086
:1039B000CDCCCC3E0000FA44000016460000C841C1
:1039C00098020020818CC907C90F002908D001681E
:1039D0004968012252049143826A1143026851608E
:1039E0000222416A1140022907D101684968D203C5
:1039F0009143C26A1143026851600422416A114036
:103A0000042907D10168496812049143026B1143EC
:103A1000026851600822416A1140082907D10168F3
:103A2000496812039143426B1143026851601022AE
:103A3000416A1140102907D1016889681202914337
:103A4000826B1143026891602022416A1140202953
:103A500007D10168896812029143C26B1143026861
:103A600091604022416A1140402915D1016849689E
:103A700092039143026C11430268516001221205C6
:103A8000016C914208D101684968032252059143B3
:103A9000426C1143026851608022416A11408029C2
:103AA00007D10168496812039143826C114302688F
:103AB00051607047F8B50446002184200151FDF79C
:103AC0000FF905462068006808210840082823D11E
:103AD00037482B46002289040090204600F01AFA4D
:103AE000002819D000BF00F0DFFA0646012000F0E0
:103AF000EDFA20680068802188432168086030461C
:103B000000F0E4FA00BF2020E06700BF0021782029
:103B1000015500BF0320F8BD20680068042108405B
:103B2000042836D122482B46002209050090204661
:103B300000F0F0F900282CD000BF00F0B5FA0646DE
:103B4000012000F0C3FA20680068FF21213188437A
:103B500021680860304600F0B9FA00BF00BF00F0ED
:103B6000A3FA0646012000F0B1FA206880684008F8
:103B7000400021688860304600F0A8FA00BF20218C
:103B80008020015100BF00217820015500BF032093
:103B9000C1E72020E067202180200151002020661D
:103BA000606600BF00217820015500BF0020B2E709
:103BB000FFFFFF0170B505466C6A00215A200153D2
:103BC000522001532046FEF7B5FD70BDF8B50546FD
:103BD0006C6AE66F80200759206880688021084061
:103BE000802807D1212E05D10021522001532046E3
:103BF00000F0A9F82068806840210840402807D1DB
:103C0000222F05D100215A200153204600F040F810
:103C10008420005910210843842108512046FEF7D2
:103C200089FDF8BD70B505466C6AA869202824D0C6
:103C300000215220015300BF00F036FA0646012051
:103C400000F044FA206880688021884321688860F9
:103C5000304600F03BFA00BF00BF00F025FA0646F0
:103C6000012000F033FA20680068402108432168F1
:103C70000860304600F02AFA02E02046FFF75AF8C2
:103C800070BD70B50446656A2846FFF754F870BDEC
:103C900070B5044600BF00F007FA0546012000F0A9
:103CA00015FA20680068FF212131884321680860E7
:103CB000284600F00BFA00BF00BF00F0F5F90546FA
:103CC000012000F003FA2068806840084000216865
:103CD0008860284600F0FAF900BF206E012810D154
:103CE00000BF00F0E1F90546012000F0EFF920687F
:103CF00000681021884321680860284600F0E6F932
:103D000000BF20218020015100202066A06670BDE8
:103D100070B5044600BF00F0C7F90546012000F069
:103D2000D5F920680068402188432168086028464A
:103D300000F0CCF900BF2020E0670020E0662046BC
:103D4000FEF7F8FF70BD70B5044600BF00F0ACF997
:103D50000546012000F0BAF920680068C0218843B8
:103D600021680860284600F0B1F900BF2020E06714
:103D700070BD0000FEB50446002000902169A068D7
:103D8000084361690843E1690843029020680068BC
:103D90005A49084002990843216808602068406831
:103DA000032109038843E168084321684860A0694A
:103DB0000290206A029908430290206880680B21D3
:103DC00009028843029908432168886000BF4C4972
:103DD0002068884217D14B48006B8007800F00286D
:103DE00006D0012808D0022808D0032808D101E015
:103DF000002707E0022705E0042703E0082701E089
:103E0000102700BF06E040492068884201D1002702
:103E100000E0102700BF0121C903E069884239D1C1
:103E2000002F06D0022F08D0042F08D0082F0DD164
:103E300009E0FDF765F905460CE0344D0AE0FDF7B1
:103E400071F9054606E00125ED0303E00025012098
:103E5000009000BF00BF002D4AD06A0063685B0875
:103E6000D0186168FCF764F90646102E0FD3284875
:103E700086420CD826480F38304001903007400F5A
:103E800001990843019001982168C86030E0012041
:103E900000902DE0002F06D0022F08D0042F08D06C
:103EA000082F0DD109E0FDF72BF905460CE0174D61
:103EB0000AE0FDF737F9054606E00125ED0303E0CA
:103EC00000250120009000BF00BF002D10D06168C8
:103ED0004A085019FCF72CF90646102E06D30C4858
:103EE000864203D8B0B22168C86001E0012000908A
:103EF0000020A066E0660098FEBD0000F369FFEFB9
:103F000000380140001002400044004000127A00D6
:103F1000FFFF0000FFB581B004460D4617460A9E1C
:103F200042E0701C00283FD0FCF7DAFE0499401AEA
:103F3000B04201D8002E02D1032005B0F0BD2068A8
:103F400000680421084000282ED02068C06908219C
:103F50000840C00800280FD00820216808622046C9
:103F6000FFF796FE08218420015100BF0021782030
:103F7000015500BF0120E0E72068C0690121C902A6
:103F80000840C00A00280FD0084621680862204671
:103F9000FFF77EFE20218420015100BF0021782000
:103FA000015500BF0320C8E72068C0692840A84227
:103FB00001D1012000E00020B842B2D00020BCE7CF
:103FC00010B50248FEF7B8FB10BD00005C030020EE
:103FD0002021020C01D010211046020A01D0104607
:103FE0000839020901D01046091F820801D0104685
:103FF000891E420801D0881E7047081A7047F8B51C
:1040000082B28BB2040C0D0C104658430021264698
:104010005E43370C36048019794116466E43370CDF
:1040200036048019794126466E438919F8BD00008F
:1040300010B5002819DB1A4A03231B02D218830883
:104040009B00D2588307DC0EFF23A3409A438B07C3
:104050001B0E8407E40EA3401A43114B03242402D1
:104060001B198408A4001A5118E00E4A03071B0FFD
:10407000083B9B089B00D2588307DC0EFF23A3401C
:104080009A438B071B0E8407E40EA3401A43054B8B
:104090000407240F083CA408A4001A5110BD000016
:1040A00000E100E01CED00E0EFF31080704702E05B
:1040B00008C8121F08C1002AFAD1704770470020B3
:1040C00001E001C1121F002AFBD1704780F3108864
:1040D0007047000001490860704700005801002047
:1040E0001CB50446062269463B2000F0CBF80028A8
:1040F00001D001201CBD6846007801026846407866
:10410000081800B220806846807801026846C078AE
:10411000081800B26080684600790102684640795C
:10412000081800B2A0800020E4E700001CB5044697
:1041300006226946432000F0A5F8002801D001209E
:104140001CBD68460078010268464078081800B235
:1041500020806846807801026846C078081800B25E
:10416000608068460079010268464079081800B20C
:10417000A08020880349088060884880A0888880C3
:104180000020DDE70C000020F8B50222694641203E
:1041900000F078F8002801D00020F8BD68460078CB
:1041A000010268464078081804B22046FCF70FF96F
:1041B00006460449FCF7CDF805460349FCF733F8F9
:1041C000EBE700006666A3430000C84110B58021FC
:1041D0006B2000F017F96420FCF776FC01216B20BE
:1041E00000F010F96420FCF76FFC752000F06EF809
:1041F0002349087008460078122805D00846007840
:104200002E2801D0012010BD00216C2000F0FAF80A
:104210000A20FCF759FC0021192000F0F3F80A20CD
:10422000FCF752FC03211A2000F0ECF80A20FCF7FE
:104230004BFC04211D2000F0E5F80A20FCF744FCAB
:10424000082000F06DF80A20FCF73EFC182000F072
:104250009FF80A20FCF738FC00211E2000F0D2F85D
:104260000A20FCF731FC0021232000F0CBF80A20C3
:10427000FCF72AFC6420FCF727FC0020C3E70000C1
:104280000A000020F8B504460D461646802020435B
:104290000090002208210920C006FCF71BFD052321
:1042A000012269460848FDF7AFFC1E233246294625
:1042B0000548FDF7BDFB012208210920C006FCF7D7
:1042C00009FD0020F8BD0000AC0100201CB504462B
:1042D000802020430190002208210920C006FCF71D
:1042E000F9FC0A23012201A90C48FDF78DFC0028E6
:1042F00001D001201CBD0A23012269460748FDF7B1
:1043000097FB002801D00120F4E7012208210920B1
:10431000C006FCF7DFFC68460078EBE7AC01002044
:1043200010B50446002C06D0082C08D0102C0BD059
:10433000182C13D10DE013481349086014E03920FC
:104340000006114908600FE07320C0050E4908609F
:104350000AE01D2040060C49086005E01024732087
:10436000C0050949086000BF00BF08490648006849
:10437000FBF7B2FF0449086021461C2000F042F818
:1043800010BD000029488038000000200AE81C41C8
:1043900010B50446002C06D0082C08D0102C0AD0EA
:1043A000182C10D10BE011481149086010E0114899
:1043B0000F4908600CE010480D49086008E00F48FC
:1043C0000B49086004E018240C480949086000BF44
:1043D00000BF0B4906480068FBF77EFF04490860F0
:1043E00021461B2000F00EF810BD0000F501FA3B3D
:1043F00004000020F5017A3CF501FA3CF5017A3D14
:1044000003FA8E3C38B504460D4668460470457084
:10441000002208210920C006FCF75CFC14230222BC
:1044200069460748FDF7F0FB002801D0012038BDA0
:10443000012208210920C006FCF74CFC0020F6E709
:10444000AC010020F0B589B0074600200790089025
:1044500005900690039004900190029004E0FFF70D
:104460005BFA0120FCF730FB084A51681068FBF743
:104470002BFF0646FBF7CFFF490049080446002200
:10448000034BFBF7F1FFEAD309B0F0BD5C0100205C
:104490000000E03F002000E0401C1D498842FBDB9B
:1044A000FCF730FCFFF719F8FEF76AFCFEF746FC54
:1044B000FEF7D0FCFEF7F8FCFEF74CFDFEF784FD9E
:1044C00000BFFFF783FE0028FBD1FFF749FA11492F
:1044D0001148FFF7B7FF0520FCF7F6FA0122022189
:1044E0000E48FCF7F7FB12E00D480068401C0C4931
:1044F000086008460068FF21F531884202DB012090
:1045000008490870FFF708FA0120FCF7DDFAEBE72D
:104510002E2700003A00002034000020000400484C
:104520004800002044000020F8B506460C46FCF781
:104530008FF8051E0F4600D00120014349000B48AB
:104540004908411AC90F0DD0002E01D0012100E009
:1045500000210C4361004908401AC00F02D101201C
:10456000FFF7B8FD28463946F8BD00000000F07F8F
:1045700010B521200E49087006220E490C48401C37
:10458000FBF72DFE06220C490948C01DFBF727FE4C
:104590000F210748FCF7DEF80F2205490748FEF710
:1045A00065FB002801D0012010BD0020FCE70000C1
:1045B0004C030020240100202A0100205C0300207D
:1045C0000000891112239B322446AD573665BF7413
:1045D000488CC19D5AAFD3BE6CCAE5DB7EE9F7F8C3
:1045E0008110080193331A22A5562C47B7753E64F3
:1045F000C99C408DDBBF52AEEDDA64CBFFF976E8A3
:1046000002218B30100299132667AF763444BD55D2
:104610004AADC3BC588ED19F6EEBE7FA7CC8F5D982
:1046200083310A2091121803A7772E66B5543C45B2
:10463000CBBD42ACD99E508FEFFB66EAFDD874C962
:1046400004428D5316619F702004A9153227BB3692
:104650004CCEC5DF5EEDD7FC6888E1997AABF3BA42
:1046600085520C4397711E60A1142805B3373A2672
:10467000CDDE44CFDFFD56ECE9986089FBBB72AA22
:1046800006638F7214409D512225AB343006B91752
:104690004EEFC7FE5CCCD5DD6AA9E3B8788AF19B02
:1046A00087730E6295501C41A3352A24B116380732
:1046B000CFFF46EEDDDC54CDEBB962A8F99A708BE2
:1046C000088481951AA793B62CC2A5D33EE1B7F012
:1046D0004008C919522BDB3A644EED5F766DFF7CC2
:1046E000899400859BB712A6ADD224C3BFF136E0F2
:1046F000C1184809D33B5A2AE55E6C4FF77D7E6CA2
:104700000AA583B4188691972EE3A7F23CC0B5D1D1
:104710004229CB38500AD91B666FEF7E744CFD5D81
:104720008BB502A499961087AFF326E2BDD034C1B1
:10473000C3394A28D11A580BE77F6E6EF55C7C4D61
:104740000CC685D71EE597F42880A1913AA3B3B291
:10475000444ACD5B5669DF78600CE91D722FFB3E41
:104760008DD604C79FF516E4A9902081BBB332A271
:10477000C55A4C4BD7795E68E11C680DF33F7A2E21
:104780000EE787F61CC495D52AA1A3B03882B19351
:10479000466BCF7A5448DD59622DEB3C700EF91F01
:1047A0008FF706E69DD414C5ABB122A0B992308331
:1047B000C77B4E6AD5585C49E33D6A2CF11E780FE1
:1047C000FF005EBCE2613FDD83C29C7E20A3FD1F33
:1047D000419DC3217FFCA2401E5F01E3BD3E60827C
:1047E000DC237D9FC1421CFEA0E1BF5D0380DE3C57
:1047F00062BEE0025CDF81633D7C22C09E1D43A15E
:10480000FF4618FAA427799BC584DA3866E5BB59B8
:1048100007DB856739BAE406581947A5FB7826C433
:104820009A653BD987045AB8E6A7F91B45C6987A1A
:1048300024F8A6441A99C7257B3A6486D85B05E715
:10484000B98CD2306EEDB3510F4E10F2AC2F719384
:10485000CD114FADF3702ECC92D38D6F31B2EC0EE3
:1048600050AFF1134DCE90722C6D33D18F0C52B0EE
:10487000EE326C8ED0530DEFB1F0AE4C1291CF2DC5
:1048800073CA947628ABF517490856B4EA6937D548
:104890008B5709EBB536688AD495CB2977F4AA48AB
:1048A00016E9B7550B88D6346A2B7597C94A14F6A2
:1048B000A8742AC896154BA9F7B6E80A54D7896B8D
:1048C0003502030405060708090A0B0C0D0E0F102C
:1048D000100102030405060708090A0B0C0D0E0F50
:1048E0001000000000000000000102030406070899
:1048F0000900000000010203040000001C49000838
:10490000000000205C01000018070008544900085E
:104910005C010020CC060000BE40000891021E0A87
:10492000035DFFFF092D6F12033B0AD7A33C09214A
:10493000B81E85EB51B8AE3F091F9A99999999997C
:10494000A93F643200C80329FA4302140142045209
:044950000163127A73
:04000005080000C12E
:00000001FF
